{
  "contractName": "TokenSender",
  "abi": [
    {
      "inputs": [],
      "name": "ECDSAInvalidSignature",
      "type": "error"
    },
    {
      "inputs": [
        {
          "internalType": "uint256",
          "name": "length",
          "type": "uint256"
        }
      ],
      "name": "ECDSAInvalidSignatureLength",
      "type": "error"
    },
    {
      "inputs": [
        {
          "internalType": "bytes32",
          "name": "s",
          "type": "bytes32"
        }
      ],
      "name": "ECDSAInvalidSignatureS",
      "type": "error"
    },
    {
      "inputs": [
        {
          "internalType": "address",
          "name": "sender",
          "type": "address"
        },
        {
          "internalType": "uint256",
          "name": "amount",
          "type": "uint256"
        },
        {
          "internalType": "address",
          "name": "recipient",
          "type": "address"
        },
        {
          "internalType": "address",
          "name": "tokenContract",
          "type": "address"
        },
        {
          "internalType": "uint256",
          "name": "nonce",
          "type": "uint256"
        },
        {
          "internalType": "bytes",
          "name": "signature",
          "type": "bytes"
        }
      ],
      "name": "transfer",
      "outputs": [],
      "stateMutability": "nonpayable",
      "type": "function"
    },
    {
      "inputs": [
        {
          "internalType": "address",
          "name": "sender",
          "type": "address"
        },
        {
          "internalType": "uint256",
          "name": "amount",
          "type": "uint256"
        },
        {
          "internalType": "address",
          "name": "recipient",
          "type": "address"
        },
        {
          "internalType": "address",
          "name": "tokenContract",
          "type": "address"
        },
        {
          "internalType": "uint256",
          "name": "nonce",
          "type": "uint256"
        }
      ],
      "name": "getHash",
      "outputs": [
        {
          "internalType": "bytes32",
          "name": "",
          "type": "bytes32"
        }
      ],
      "stateMutability": "pure",
      "type": "function"
    }
  ],
  "bytecode": "0x608060405234801561000f575f80fd5b50610c908061001d5f395ff3fe608060405234801561000f575f80fd5b5060043610610034575f3560e01c80635c1823c814610038578063dd506b4514610068575b5f80fd5b610052600480360381019061004d9190610649565b610084565b60405161005f91906106d8565b60405180910390f35b610082600480360381019061007d919061082d565b6100bf565b005b5f858585858560405160200161009e959493929190610937565b60405160208183030381529060405280519060200120905095945050505050565b5f6100cd8787878787610084565b90505f6100d9826102b0565b90505f808281526020019081526020015f205f9054906101000a900460ff1615610138576040517f08c379a000000000000000000000000000000000000000000000000000000000815260040161012f906109ef565b60405180910390fd5b5f61014c84836102e390919063ffffffff16565b90508873ffffffffffffffffffffffffffffffffffffffff168173ffffffffffffffffffffffffffffffffffffffff16146101bc576040517f08c379a00000000000000000000000000000000000000000000000000000000081526004016101b390610a7d565b60405180910390fd5b60015f808481526020019081526020015f205f6101000a81548160ff0219169083151502179055505f8673ffffffffffffffffffffffffffffffffffffffff166323b872dd8b8a8c6040518463ffffffff1660e01b815260040161022293929190610ab9565b6020604051808303815f875af115801561023e573d5f803e3d5ffd5b505050506040513d601f19601f820116820180604052508101906102629190610b23565b9050806102a4576040517f08c379a000000000000000000000000000000000000000000000000000000000815260040161029b90610b98565b60405180910390fd5b50505050505050505050565b5f7f19457468657265756d205369676e6564204d6573736167653a0a3332000000005f5281601c52603c5f209050919050565b5f805f806102f1868661030d565b9250925092506103018282610362565b82935050505092915050565b5f805f604184510361034d575f805f602087015192506040870151915060608701515f1a905061033f888285856104c4565b95509550955050505061035b565b5f600285515f1b9250925092505b9250925092565b5f600381111561037557610374610bb6565b5b82600381111561038857610387610bb6565b5b03156104c057600160038111156103a2576103a1610bb6565b5b8260038111156103b5576103b4610bb6565b5b036103ec576040517ff645eedf00000000000000000000000000000000000000000000000000000000815260040160405180910390fd5b60026003811115610400576103ff610bb6565b5b82600381111561041357610412610bb6565b5b0361045757805f1c6040517ffce698f700000000000000000000000000000000000000000000000000000000815260040161044e9190610be3565b60405180910390fd5b60038081111561046a57610469610bb6565b5b82600381111561047d5761047c610bb6565b5b036104bf57806040517fd78bce0c0000000000000000000000000000000000000000000000000000000081526004016104b691906106d8565b60405180910390fd5b5b5050565b5f805f7f7fffffffffffffffffffffffffffffff5d576e7357a4501ddfe92f46681b20a0845f1c1115610500575f6003859250925092506105a1565b5f6001888888886040515f81526020016040526040516105239493929190610c17565b6020604051602081039080840390855afa158015610543573d5f803e3d5ffd5b5050506020604051035190505f73ffffffffffffffffffffffffffffffffffffffff168173ffffffffffffffffffffffffffffffffffffffff1603610594575f60015f801b935093509350506105a1565b805f805f1b935093509350505b9450945094915050565b5f604051905090565b5f80fd5b5f80fd5b5f73ffffffffffffffffffffffffffffffffffffffff82169050919050565b5f6105e5826105bc565b9050919050565b6105f5816105db565b81146105ff575f80fd5b50565b5f81359050610610816105ec565b92915050565b5f819050919050565b61062881610616565b8114610632575f80fd5b50565b5f813590506106438161061f565b92915050565b5f805f805f60a08688031215610662576106616105b4565b5b5f61066f88828901610602565b955050602061068088828901610635565b945050604061069188828901610602565b93505060606106a288828901610602565b92505060806106b388828901610635565b9150509295509295909350565b5f819050919050565b6106d2816106c0565b82525050565b5f6020820190506106eb5f8301846106c9565b92915050565b5f80fd5b5f80fd5b5f601f19601f8301169050919050565b7f4e487b71000000000000000000000000000000000000000000000000000000005f52604160045260245ffd5b61073f826106f9565b810181811067ffffffffffffffff8211171561075e5761075d610709565b5b80604052505050565b5f6107706105ab565b905061077c8282610736565b919050565b5f67ffffffffffffffff82111561079b5761079a610709565b5b6107a4826106f9565b9050602081019050919050565b828183375f83830152505050565b5f6107d16107cc84610781565b610767565b9050828152602081018484840111156107ed576107ec6106f5565b5b6107f88482856107b1565b509392505050565b5f82601f830112610814576108136106f1565b5b81356108248482602086016107bf565b91505092915050565b5f805f805f8060c08789031215610847576108466105b4565b5b5f61085489828a01610602565b965050602061086589828a01610635565b955050604061087689828a01610602565b945050606061088789828a01610602565b935050608061089889828a01610635565b92505060a087013567ffffffffffffffff8111156108b9576108b86105b8565b5b6108c589828a01610800565b9150509295509295509295565b5f8160601b9050919050565b5f6108e8826108d2565b9050919050565b5f6108f9826108de565b9050919050565b61091161090c826105db565b6108ef565b82525050565b5f819050919050565b61093161092c82610616565b610917565b82525050565b5f6109428288610900565b6014820191506109528287610920565b6020820191506109628286610900565b6014820191506109728285610900565b6014820191506109828284610920565b6020820191508190509695505050505050565b5f82825260208201905092915050565b7f416c7265616479206578656375746564210000000000000000000000000000005f82015250565b5f6109d9601183610995565b91506109e4826109a5565b602082019050919050565b5f6020820190508181035f830152610a06816109cd565b9050919050565b7f5369676e617475726520646f6573206e6f7420636f6d652066726f6d2073656e5f8201527f6465720000000000000000000000000000000000000000000000000000000000602082015250565b5f610a67602383610995565b9150610a7282610a0d565b604082019050919050565b5f6020820190508181035f830152610a9481610a5b565b9050919050565b610aa4816105db565b82525050565b610ab381610616565b82525050565b5f606082019050610acc5f830186610a9b565b610ad96020830185610a9b565b610ae66040830184610aaa565b949350505050565b5f8115159050919050565b610b0281610aee565b8114610b0c575f80fd5b50565b5f81519050610b1d81610af9565b92915050565b5f60208284031215610b3857610b376105b4565b5b5f610b4584828501610b0f565b91505092915050565b7f5472616e73666572206661696c656400000000000000000000000000000000005f82015250565b5f610b82600f83610995565b9150610b8d82610b4e565b602082019050919050565b5f6020820190508181035f830152610baf81610b76565b9050919050565b7f4e487b71000000000000000000000000000000000000000000000000000000005f52602160045260245ffd5b5f602082019050610bf65f830184610aaa565b92915050565b5f60ff82169050919050565b610c1181610bfc565b82525050565b5f608082019050610c2a5f8301876106c9565b610c376020830186610c08565b610c4460408301856106c9565b610c5160608301846106c9565b9594505050505056fea2646970667358221220559b29851694419885534dd6ef04cf42af09984f79e882bc2aa8651a3516335e64736f6c63430008140033",
  "immutableReferences": {},
  "source": "// SPDX-License-Identifier: MIT\npragma solidity ^0.8.20;\n\nimport \"@openzeppelin/contracts/token/ERC20/IERC20.sol\";\nimport \"@openzeppelin/contracts/utils/cryptography/ECDSA.sol\";\nimport \"@openzeppelin/contracts/utils/cryptography/MessageHashUtils.sol\";\n\ncontract TokenSender {\n  using ECDSA for bytes32;\n  using MessageHashUtils for bytes32;\n\n  mapping(bytes32 => bool) executed;\n\n  function transfer(\n    address sender,\n    uint256 amount,\n    address recipient,\n    address tokenContract,\n    uint256 nonce,\n    bytes memory signature\n  ) public {\n    // Calculate the hash of all the requisite values\n    bytes32 messageHash = getHash(sender, amount, recipient, tokenContract, nonce);\n    // Convert it to a signed message hash\n    bytes32 signedMessageHash = messageHash.toEthSignedMessageHash();\n\n    // Require that this signature hasn't already been executed\n    require(!executed[signedMessageHash], \"Already executed!\");\n\n    // Extract the original signer address\n    address signer = signedMessageHash.recover(signature);\n\n    // Make sure signer is the person on whose behalf we're executing the transaction\n    require(signer == sender, \"Signature does not come from sender\");\n\n    // Mark this signature as having been executed now\n    executed[signedMessageHash] = true;  \n\n    // Transfer tokens from sender(signer) to recipient\n    bool sent = IERC20(tokenContract).transferFrom(\n        sender,\n        recipient,\n        amount\n    );\n    require(sent, \"Transfer failed\");\n  }\n\n  // Helper function to calculate the keccak256 hash\n  function getHash(\n    address sender,\n    uint256 amount,\n    address recipient,\n    address tokenContract,\n    uint256 nonce\n  ) public pure returns (bytes32) {\n    return\n      keccak256(\n          abi.encodePacked(sender, amount, recipient, tokenContract, nonce)\n      );\n  }\n}",
  "sourcePath": "C:\\Users\\user\\Desktop\\low-level-solidity\\Meta-Transaction\\contracts\\contracts\\TokenSender.sol",
  "compiler": {
    "name": "solc",
    "version": "0.8.20+commit.a1b79de6.Emscripten.clang"
  },
  "schemaVersion": "3.4.16",
  "updatedAt": "2023-10-11T05:06:29.289Z",
  "devdoc": {
    "errors": {
      "ECDSAInvalidSignature()": [
        {
          "details": "The signature derives the `address(0)`."
        }
      ],
      "ECDSAInvalidSignatureLength(uint256)": [
        {
          "details": "The signature has an invalid length."
        }
      ],
      "ECDSAInvalidSignatureS(bytes32)": [
        {
          "details": "The signature has an S value that is in the upper half order."
        }
      ]
    },
    "kind": "dev",
    "methods": {},
    "version": 1
  },
  "userdoc": {
    "kind": "user",
    "methods": {},
    "version": 1
  }
}